:020000040000FA
:0400000046EF1AF0BD
:10060000000076797778666D7D077F777C395E7933
:1006100071554C4452535841425973706172612074
:10062000636F6E66696775726172210041706572F1
:100630007465205320702F207361697200417065CA
:10064000727465206F20626F74616F207300205494
:10065000656D70206D61783A20002054656D702EB4
:100660003A002020202050323A002020202054320E
:100670003A002020202050343A00202020205434FA
:100680003A0020507265733A00506E657520005034
:100690007265762E004E6578740050313A00543100
:1006A0003A0050333A0054333A0050534900205036
:1006B0000043004C00520000000E026E000E016E5E
:1006C00022EC1BF001C0A6F002C0A7F0000E3C6EA9
:1006D000000E3D6EC80E3E6E420E3F6E000E136E53
:1006E000C00E146E7F0E156E440E166EA6C001F07D
:1006F000A7C002F0000E02BEFF0E036E046E010ED4
:100700004AEC11F001C00FF002C010F003C011F06C
:1007100004C012F056EC0AF00FC038F010C039F0E7
:1007200011C03AF012C03BF041EC08F038C055F06F
:1007300039C056F03AC057F03BC058F0000E516E29
:10074000000E526E480E536E420E546E95EC1BF026
:1007500051C059F052C05AF053C05BF054C05CF025
:1007600081EC15F059C0A2F05AC0A3F0000E026E41
:10077000000E016E22EC1BF00001A451011809E1EA
:10078000A5510218D8B4C7EF03F0C9EF03F059EF31
:1007900004F0010E0EEC1DF04E0E0F6E060E106EE4
:1007A000F7EC1AF0000E3C6E000E3D6EC80E3E6E69
:1007B000420E3F6E000E2C6E000E2D6E800E2E6EC1
:1007C0003F0E2F6E000E136E000E146EC80E156EC7
:1007D000420E166EA2C001F0A3C002F0000E02BECF
:1007E000FF0E036E046E010E4AEC11F001C00FF013
:1007F00002C010F003C011F004C012F056EC0AF071
:100800000FC028F010C029F011C02AF012C02BF040
:10081000E1EC05F028C038F029C039F02AC03AF0E0
:100820002BC03BF041EC08F038C059F039C05AF009
:100830003AC05BF03BC05CF081EC15F059C063F04E
:100840005AC064F072EC19F0000E0001896F000EBE
:10085000886F89BF35EF04F0E80E885D030E895973
:10086000D8A035EF04F037EF04F039EF04F055EF7E
:1008700004F0000E8B6F000E8A6F8BBF49EF04F0FF
:100880008B5109E1640E8A5DD8A049EF04F04BEF6B
:1008900004F04DEF04F051EF04F08A4B8B2B3DEF49
:1008A00004F0884B892B29EF04F0A6C0A4F0A7C060
:1008B000A5F05CEC14F0C1EC18F0550AD8A463EF75
:1008C00004F065EF04F09AEF04F0010E7B6E010E68
:1008D0007E6E000E00018D6F000E8C6F8DBF7AEF63
:1008E00004F0E80E8C5D030E8D59D8A07AEF04F069
:1008F0007CEF04F07EEF04F0DEEF05F0000E8F6F6A
:10090000000E8E6F8FBF8EEF04F08F5109E1640EE1
:100910008E5DD8A08EEF04F090EF04F092EF04F01B
:1009200096EF04F08E4B8F2B82EF04F08C4B8D2BC7
:100930006EEF04F0C1EC18F0440AD8A4A2EF04F062
:10094000A4EF04F0D8EF04F07B68010E7E6E000E79
:100950000001916F000E906F91BFB8EF04F0E80EA8
:10096000905D030E9159D8A0B8EF04F0BAEF04F0EF
:10097000BCEF04F0DEEF05F0000E936F000E926FF7
:1009800093BFCCEF04F0935109E1640E925DD8A0BF
:10099000CCEF04F0CEEF04F0D0EF04F0D4EF04F08D
:1009A000924B932BC0EF04F0904B912BACEF04F0E3
:1009B000C1EC18F0520AD8A4E0EF04F0E2EF04F022
:1009C00055EF05F0000E7B6E7F04D8A4EAEF04F02B
:1009D000ECEF04F006EF05F0030E7C60F2EF04F09C
:1009E000F4EF04F0FDEF04F0010E7C240001806FB1
:1009F000816B000E812302EF05F0000E0001816F74
:100A0000000E806F80C07CF01EEF05F0050E7C604C
:100A10000CEF05F00EEF05F017EF05F0010E7C244A
:100A20000001826F836B000E83231CEF05F0000E24
:100A30000001836F000E826F82C07CF0010E7E6E1B
:100A4000000E956F000E946F95BF30EF05F0E80E25
:100A5000945D030E9559D8A030EF05F032EF05F004
:100A600034EF05F050EF05F0000E976F000E966F13
:100A700097BF44EF05F0975109E1640E965DD8A049
:100A800044EF05F046EF05F048EF05F04CEF05F0B8
:100A9000964B972B38EF05F0944B952B24EF05F0F0
:100AA000010E0EEC1DF0DEEF05F0C1EC18F04C0A63
:100AB000D8A45DEF05F05FEF05F0D2EF05F0000E72
:100AC0007B6E7F04D8A467EF05F069EF05F083EF34
:100AD00005F07C50D8B46FEF05F071EF05F07AEFB8
:100AE00005F0FF0E7C240001846F856BFF0E8523CB
:100AF0007FEF05F0000E0001856F030E846F84C048
:100B00007CF09BEF05F07C50D8B489EF05F08BEFBB
:100B100005F094EF05F0FF0E7C240001866F876BD3
:100B2000FF0E872399EF05F0000E0001876F050E79
:100B3000866F86C07CF0010E7E6E000E996F000EEF
:100B4000986F99BFADEF05F0E80E985D030E9959C7
:100B5000D8A0ADEF05F0AFEF05F0B1EF05F0CDEFA8
:100B600005F0000E9B6F000E9A6F9BBFC1EF05F062
:100B70009B5109E1640E9A5DD8A0C1EF05F0C3EF67
:100B800005F0C5EF05F0C9EF05F09A4B9B2BB5EFCB
:100B900005F0984B992BA1EF05F0010E0EEC1DF01E
:100BA000DEEF05F0C1EC18F0530AD8A4DAEF05F037
:100BB000DCEF05F0DEEF05F0000E7F6E5CEC14F06C
:100BC00012002B50800B346E2B502B24366E2AAE25
:100BD000ECEF05F0EEEF05F0EFEF05F03680365064
:100BE000D8B4F5EF05F0F7EF05F00CEF06F0362876
:100BF000D8A4FDEF05F0FFEF05F007EF06F0000EBB
:100C0000286E000E296E000E2A6E000E2B6E2A8EA4
:100C1000000E2B6E14EF06F0000E286E000E296EEB
:100C2000000E2A6E000E2B6E2F50800B356E345046
:100C30003518D8B41EEF06F020EF06F021EF06F0CD
:100C4000348C2F502F24356E2EAE29EF06F02BEF6B
:100C500006F02CEF06F035803550D8B432EF06F0B0
:100C600034EF06F049EF06F03528D8A43AEF06F045
:100C70003CEF06F044EF06F0000E2C6E000E2D6ED9
:100C8000000E2E6E000E2F6E2E8E000E2F6E51EF68
:100C900006F0000E2C6E000E2D6E000E2E6E000E55
:100CA0002F6E3650355CD8B058EF06F05AEF06F08C
:100CB00081EF06F034AC5FEF06F061EF06F063EF12
:100CC00006F0800E341A36C037F035C036F037C023
:100CD00035F028C037F02CC028F037C02CF029C0E0
:100CE00037F02DC029F037C02DF02AC037F02EC0C4
:100CF0002AF037C02EF02BC037F02FC02BF037C0B2
:100D00002FF0000E376E365035C030F0316A305E4D
:100D1000000E315A31BE96EF06F0315009E11A0E3D
:100D2000305CD8A096EF06F098EF06F0CFEF06F013
:100D3000285029102A102B10D8A4A1EF06F0A4EFF8
:100D400006F0010EA5EF06F0000E376E000E286EBD
:100D5000000E296E000E2A6E000E2B6E35C036F086
:100D6000D8EF06F037A0B7EF06F0B9EF06F0BFEF07
:100D700006F0D89037300109376EC1EF06F0D890F1
:100D8000373228A0C6EF06F0C8EF06F0C9EF06F02C
:100D9000378E2B342B322A3229322832362A3550DC
:100DA000365CD8A0D6EF06F0D8EF06F0B2EF06F02A
:100DB00034BCDDEF06F0DFEF06F01FEF07F0365032
:100DC000D8A4E5EF06F0E7EF06F0F1EF06F0000E2D
:100DD000286E000E296E000E2A6E000E2B6E40EF5C
:100DE00008F02C5028262D5029222E502A222F5030
:100DF0002B222BA0FEEF06F000EF07F0ACEF07F080
:100E000037A005EF07F007EF07F00DEF07F0D890D8
:100E100037300109376E0FEF07F0D890373228A02E
:100E200014EF07F016EF07F017EF07F0378E2B34AB
:100E30002B322A3229322832362AACEF07F02C50D6
:100E4000285C2D5029582E502A582B50800A306E7D
:100E50002F50800A3058D8B030EF07F032EF07F04B
:100E60005DEF07F028502C5C306E29502D58316E04
:100E70002A502E58326E2B502F58336EFF0E3024CE
:100E8000286EFF0E3120296EFF0E32202A6EFF0ED3
:100E900033202B6E800E341A376C3750D8A453EFA2
:100EA00007F055EF07F065EF07F0010E2826000E5A
:100EB00029222A222B2265EF07F02C50285E2D5084
:100EC000295A2E502A5A2F502B5A285029102A10AE
:100ED0002B10D8A46EEF07F070EF07F0A5EF07F026
:100EE0003750D8A476EF07F078EF07F0A5EF07F0BA
:100EF000000E286E000E296E000E2A6E000E2B6E5C
:100F000040EF08F0D890283629362A362B3637AEEF
:100F10008CEF07F08EEF07F08FEF07F0288037A0F7
:100F200094EF07F096EF07F09AEF07F0D880373686
:100F30009CEF07F0D89037363650D8B4A2EF07F0C0
:100F4000A4EF07F0A5EF07F036062AAEAAEF07F0E8
:100F5000ACEF07F082EF07F0000E356E37AEB3EF5F
:100F600007F0B5EF07F0CDEF07F037C030F07F0E98
:100F70003016D8B4BEEF07F0C0EF07F0C4EF07F0AB
:100F8000010E356ECDEF07F028A0C9EF07F0CBEFCB
:100F900007F0CDEF07F0C0EF07F03550D8B4D3EF2E
:100FA00007F0D5EF07F000EF08F0010E2826000E3D
:100FB00029222A222B222BA0E0EF07F0E2EF07F0F4
:100FC00000EF08F028C030F029C031F02AC032F01C
:100FD0002BC033F03334333232323132303230C01E
:100FE00028F031C029F032C02AF033C02BF0362867
:100FF000D8B4FDEF07F0FFEF07F000EF08F0362A56
:101000003628D8B406EF08F008EF08F010EF08F023
:101010003650D8A40EEF08F010EF08F022EF08F0D9
:10102000000E286E000E296E000E2A6E000E2B6E2A
:101030003650D8A41EEF08F020EF08F022EF08F099
:10104000000E346E36A027EF08F029EF08F02CEFE1
:1010500008F02A8E2DEF08F02A9ED89036302B6E9D
:1010600034AE35EF08F037EF08F038EF08F02B8E8C
:1010700028C028F029C029F02AC02AF02BC02BF064
:1010800012003B50800B446E3B503B244A6E3AAEFC
:101090004CEF08F04EEF08F04FEF08F04A804A504E
:1010A000D8B455EF08F057EF08F06AEF08F04A2877
:1010B000D8A45DEF08F05FEF08F067EF08F0000ECE
:1010C000386E000E396E000E3A6E000E3B6E3A8E90
:1010D00072EF08F0000E386E000E396E000E3A6E98
:1010E000000E3B6E3F50800B441A3F503F24496E28
:1010F0003EAE7DEF08F07FEF08F080EF08F049800A
:101100004950D8B486EF08F088EF08F09BEF08F05C
:101110004928D8A48EEF08F090EF08F098EF08F077
:10112000000E3C6E000E3D6E000E3E6E000E3F6ED9
:101130003E8EA3EF08F0000E3C6E000E3D6E000EDA
:101140003E6E000E3F6E4950D8B4A9EF08F0ABEFE9
:1011500008F0B3EF08F04A50D8A4B1EF08F0B3EFAD
:1011600008F0BDEF08F0000E386E000E396E000E6C
:101170003A6E000E3B6E55EF0AF03E503802F3CF48
:101180004FF0F4CF50F04F50456E466A476A486AB8
:1011900050504B6E4C6A4D6A4E6A3D503902F3CF47
:1011A0004FF0F4CF50F04F504526000E4622472214
:1011B000482250504B26000E4C224D224E223C50CD
:1011C0003A02F3CF4FF0F4CF50F04F504526000EC7
:1011D00046224722482250504B26000E4C224D22D8
:1011E0004E2247C048F046C047F045C046F0456A29
:1011F0003C503902F3CF4FF0F4CF50F04F5045261A
:1012000050504622000E4722000E48223D50380220
:10121000F3CF4FF0F4CF50F04F50452650504622B8
:10122000000E4722000E482247C048F046C047F053
:1012300045C046F0456A3C503802F3CF4FF0F4CF3A
:1012400050F04F50452650504622000E4722000EC7
:1012500048223E503902F3CF4FF0F4CF50F04F50B8
:101260004B2650504C22000E4D22000E4E223D5077
:101270003A02F3CF4FF0F4CF50F04F504B2650507E
:101280004C22000E4D22000E4E223E503A02F3CF69
:101290004FF0F4CF50F04F50406E5050416E426AC4
:1012A000436A42C043F041C042F040C041F0406A4E
:1012B00040504B2641504C2242504D2243504E222A
:1012C00045C040F046C041F047C042F048C043F03E
:1012D000190E70EF09F0D890433242324132403259
:1012E000E82E6BEF09F040504B2641504C22425003
:1012F0004D2243504E2247C048F046C047F045C0FB
:1013000046F0456A49504AC040F0416A4026000E06
:101310004122820E40244F6EFF0E4120506EA6EFF8
:1013200009F0D8904B364C364D364E3648AE9BEFD2
:1013300009F09DEF09F09EEF09F04B80D8904536FB
:101340004636473648364F06D8A050064DAEABEF6E
:1013500009F0ADEF09F091EF09F0000E496E48AECB
:10136000B4EF09F0B6EF09F0DAEF09F0FF0E45141B
:10137000406EFF0E4614416EFF0E4714426E7F0E04
:101380004814436E4050411042104310D8B4CBEF84
:1013900009F0CDEF09F0D1EF09F0010E496EDAEF57
:1013A00009F04BA0D6EF09F0D8EF09F0DAEF09F019
:1013B000CDEF09F04950D8B4E0EF09F0E2EF09F0C1
:1013C00006EF0AF0010E4B26000E4C224D224E2253
:1013D0004EA0EDEF09F0EFEF09F006EF0AF04BC079
:1013E00040F04CC041F04DC042F04EC043F0433499
:1013F000433242324132403240C04BF041C04CF0A7
:1014000042C04DF043C04EF04F4A502A50BE11EF3B
:101410000AF0505008E14F28D8A011EF0AF013EF5E
:101420000AF01DEF0AF0000E4B6E000E4C6E800E9F
:101430004D6E7F0E4E6E4BEF0AF050BE2AEF0AF053
:10144000505006E14F04D8B028EF0AF02AEF0AF016
:1014500036EF0AF0000E4B6E000E4C6E000E4D6E15
:10146000000E4E6E000E446E4BEF0AF04FC04AF075
:10147000FF0E4B16FF0E4C167F0E4D16000E4E162D
:101480004AA045EF0AF047EF0AF048EF0AF04D8E08
:10149000D8904A304E6E44504E124BC038F04CC07B
:1014A00039F04DC03AF04EC03BF012001250800BA4
:1014B0001F6E12501224266E11AE61EF0AF063EF18
:1014C0000AF064EF0AF026802650D8B46AEF0AF0DA
:1014D0006CEF0AF081EF0AF02628D8A472EF0AF028
:1014E00074EF0AF07CEF0AF0000E0F6E000E106E23
:1014F000000E116E000E126E118E000E126E89EF2C
:101500000AF0000E0F6E000E106E000E116E000E2F
:10151000126E1650800B1F1A16501624276E15AE29
:1015200094EF0AF096EF0AF097EF0AF02780275021
:10153000D8B49DEF0AF09FEF0AF0B4EF0AF0272825
:10154000D8A4A5EF0AF0A7EF0AF0AFEF0AF0000E5B
:10155000136E000E146E000E156E000E166E158EB4
:10156000000E166EBCEF0AF0000E136E000E146E25
:10157000000E156E000E166E135014101510161076
:10158000D8A4C5EF0AF0C7EF0AF0DFEF0AF0000EAB
:101590000F6E000E106E000E116E000E126E800E99
:1015A00011127F0E12121F5012120FC00FF010C036
:1015B00010F011C011F012C012F022EF0CF0265002
:1015C000D8A4E5EF0AF0E7EF0AF0F1EF0AF0000E19
:1015D0000F6E000E106E000E116E000E126E22EFD6
:1015E0000CF0275026C017F0186A175E000E185A24
:1015F0007F0E1724206E000E1820216E0FC01BF0E6
:1016000010C01CF011C01DF012C01EF0000E0F6EB5
:10161000000E106E000E116E000E126E000E226E85
:10162000000E236E000E246E000E256E000E276E37
:1016300052EF0BF02750D8B420EF0BF022EF0BF055
:1016400039EF0BF0D8901B361C361D361E36D8905D
:101650000F3610361136123625AE31EF0BF033EF60
:101660000BF034EF0BF00F80D8902236233624365F
:10167000253613501B5C14501C5815501D5816501D
:101680001E58D8A046EF0BF048EF0BF051EF0BF0CF
:10169000258C13501B5E14501C5A15501D5A1650A1
:1016A0001E5A272A190E276458EF0BF05AEF0BF039
:1016B0001AEF0BF01B501C101D101E10D8B463EF56
:1016C0000BF065EF0BF07DEF0BF022807DEF0BF060
:1016D000D8900F3610361136123625AE72EF0BF059
:1016E00074EF0BF075EF0BF00F80D8902236233695
:1016F000243625362006D8A0210611AE82EF0BF045
:1017000084EF0BF068EF0BF0000E276E25AE8BEF29
:101710000BF08DEF0BF0B1EF0BF0FF0E2214176EF4
:10172000FF0E2314186EFF0E2414196E7F0E25145D
:101730001A6E1750181019101A10D8B4A2EF0BF027
:10174000A4EF0BF0A8EF0BF0010E276EB1EF0BF03A
:101750000FA0ADEF0BF0AFEF0BF0B1EF0BF0A4EF7C
:101760000BF02750D8B4B7EF0BF0B9EF0BF0DDEF6B
:101770000BF0010E0F26000E10221122122212A0D1
:10178000C4EF0BF0C6EF0BF0DDEF0BF00FC017F05E
:1017900010C018F011C019F012C01AF01A341A3221
:1017A00019321832173217C00FF018C010F019C0D4
:1017B00011F01AC012F0204A212A21BEE8EF0BF0E6
:1017C000215008E12028D8A0E8EF0BF0EAEF0BF059
:1017D000F5EF0BF0000E216E2068000E0F6E000E6C
:1017E000106E000E116E000E126E21BE02EF0CF094
:1017F000215006E12004D8B000EF0CF002EF0CF00D
:1018000010EF0CF0000E216E000E206E000E0F6E19
:10181000000E106E000E116E000E126E000E1F6E86
:1018200020C026F026A017EF0CF019EF0CF01CEFEB
:101830000CF0118E1DEF0CF0119ED8902630126E18
:10184000D3EF0AF01200AE0E0F6E060E106EF7EC1C
:101850001AF0010E7C240F6E106A000E102238EC74
:1018600019F0820E0F6E060E106EF7EC1AF0B00E25
:101870007C24D96EDA6A000EDA22DF50676E675078
:10188000636E646A72EC19F0AA0E0F6E060E106E8B
:10189000F7EC1AF0000E106E010E0F6E000E126EB5
:1018A000010E116E17EC1CF05A0E0F6E060E106E24
:1018B000F7EC1AF0A80E7C24D96EDA6A000EDA2250
:1018C000DF50676E6750636E646A72EC19F06F0EDA
:1018D000FFEC1CF0B10E0F6E060E106EF7EC1AF056
:1018E000000E3C6E000E3D6EC00E3E6E3F0E3F6E13
:1018F000AC0E7C24D96EDA6A000EDA22DF50676EF5
:101900006750016E026A036A046A010E4AEC11F024
:1019100001C038F002C039F003C03AF004C03BF017
:1019200041EC08F038C051F039C052F03AC053F0E1
:101930003BC054F0B00E7C24D96EDA6A000EDA2275
:10194000DF50686E6850016E026A036A046A010E15
:101950004AEC11F001C055F002C056F003C057F038
:1019600004C058F004EC16F0D8A0B9EF0CF0BBEFAF
:101970000CF006EF0DF0B00E7C24D96EDA6A000E82
:10198000DA22DF50676E6750016E026A036A046AEA
:10199000010E4AEC11F001C051F002C052F003C038
:1019A00053F004C054F0330E3C6E330E3D6E330ED4
:1019B0003E6E3F0E3F6EAC0E7C24D96EDA6A000E8E
:1019C000DA22DF50686E6850016E026A036A046AA8
:1019D000010E4AEC11F001C038F002C039F003C02A
:1019E0003AF004C03BF041EC08F038C055F039C083
:1019F00056F03AC057F03BC058F004EC16F0D8B09F
:101A000004EF0DF006EF0DF00EEF0DF0000E086E76
:101A1000010E076E11EC18F0B2EF0DF0660E3C6E81
:101A2000660E3D6EA60E3E6E3F0E3F6EAC0E7C24E3
:101A3000D96EDA6A000EDA22DF50676E6750016EE7
:101A4000026A036A046A010E4AEC11F001C038F020
:101A500002C039F003C03AF004C03BF041EC08F09A
:101A600038C051F039C052F03AC053F03BC054F086
:101A7000B00E7C24D96EDA6A000EDA22DF50686E6E
:101A80006850016E026A036A046A010E4AEC11F0A2
:101A900001C055F002C056F003C057F004C058F022
:101AA00004EC16F0D8A057EF0DF059EF0DF0A4EFAD
:101AB0000DF0B00E7C24D96EDA6A000EDA22DF5007
:101AC000676E6750016E026A036A046A010E4AEC8F
:101AD00011F001C051F002C052F003C053F004C035
:101AE00054F0660E3C6E660E3D6E660E3E6E3F0E08
:101AF0003F6EAC0E7C24D96EDA6A000EDA22DF501B
:101B0000686E6850016E026A036A046A010E4AEC4C
:101B100011F001C038F002C039F003C03AF004C03F
:101B20003BF041EC08F038C055F039C056F03AC0EF
:101B300057F03BC058F004EC16F0D8B0A2EF0DF00F
:101B4000A4EF0DF0ACEF0DF0000E086E030E076E63
:101B500011EC18F0B2EF0DF0000E086E020E076ED9
:101B600011EC18F01200040E7C60B9EF0DF0BBEF21
:101B70000DF05FEF0EF0A80E7C24D96EDA6A000E2D
:101B8000DA22000E3C6E000E3D6EC80E3E6E420E16
:101B90003F6E000E2C6E000E2D6E800E2E6E3F0ED0
:101BA0002F6E000E136E000E146EC80E156E420ED0
:101BB000166EA2C001F0A3C002F0000E02BEFF0E1E
:101BC000036E046E010E4AEC11F001C00FF002C06A
:101BD00010F003C011F004C012F056EC0AF00FC070
:101BE00028F010C029F011C02AF012C02BF0E1EC4F
:101BF00005F028C038F029C039F02AC03AF02BC0CF
:101C00003BF041EC08F038C059F039C05AF03AC006
:101C10005BF03BC05CF081EC15F0DE50595CD8B055
:101C200014EF0EF016EF0EF0FBEF0EF0000E016E4B
:101C3000010EA0EC1AF0010E016E020EA0EC1AF0DB
:101C4000020E016E030EA0EC1AF0030E016E040EDC
:101C5000A0EC1AF0000E656E000E646EF1EC12F04E
:101C6000000EACEC19F0000E676E000E666E640E8E
:101C7000ACEC19F0664A672A67BE48EF0EF0675071
:101C800009E10A0E665CD8A048EF0EF04AEF0EF0AC
:101C900037EF0EF0644A652A65BE58EF0EF06550C6
:101CA00009E1640E645CD8A058EF0EF05AEF0EF014
:101CB0002EEF0EF0000EACEC19F0FBEF0EF0000E64
:101CC0003C6E000E3D6EC80E3E6E420E3F6E000E24
:101CD0002C6E000E2D6E800E2E6E3F0E2F6E000E9F
:101CE000136E000E146EC80E156E420E166EA2C054
:101CF00001F0A3C002F0000E02BEFF0E036E046EE0
:101D0000010E4AEC11F001C00FF002C010F003C048
:101D100011F004C012F056EC0AF00FC028F010C009
:101D200029F011C02AF012C02BF0E1EC05F028C018
:101D300038F029C039F02AC03AF02BC03BF041EC12
:101D400008F038C059F039C05AF03AC05BF03BC0D7
:101D50005CF081EC15F07750595CD8B0B2EF0EF022
:101D6000B4EF0EF0FBEF0EF0000E016E010EA0ECD2
:101D70001AF0010E016E020EA0EC1AF0020E016EB6
:101D8000030EA0EC1AF0030E016E040EA0EC1AF084
:101D9000000E696E000E686EF1EC12F0000EACECF5
:101DA00019F0000E6B6E000E6A6E640EACEC19F04A
:101DB0006A4A6B2A6BBEE6EF0EF06B5009E10A0E21
:101DC0006A5CD8A0E6EF0EF0E8EF0EF0D5EF0EF06B
:101DD000684A692A69BEF6EF0EF0695009E1640E9F
:101DE000685CD8A0F6EF0EF0F8EF0EF0CCEF0EF036
:101DF000000EACEC19F0120002BE0AEF0FF0025018
:101E000007E1080E015CD8B008EF0FF00AEF0FF001
:101E100034EF0FF003500410D8B411EF0FF013EFAC
:101E20000FF023EF0FF001C005F0010E066E052A3A
:101E30001CEF0FF0D8900636052E1AEF0FF0065063
:101E4000801222EF10F001C005F0010E066E052A87
:101E50002CEF0FF0D8900636052E2AEF0FF0065023
:101E6000FF0A801622EF10F002BE42EF0FF0025080
:101E700007E1100E015CD8B040EF0FF042EF0FF019
:101E800070EF0FF0F80E0126FF0E0222035004102F
:101E9000D8B44DEF0FF04FEF0FF05FEF0FF001C030
:101EA00005F0010E066E052A58EF0FF0D8900636A1
:101EB000052E56EF0FF00650811222EF10F001C0F0
:101EC00005F0010E066E052A68EF0FF0D890063671
:101ED000052E66EF0FF00650FF0A811622EF10F074
:101EE00002BE7EEF0FF0025007E1180E015CD8B081
:101EF0007CEF0FF07EEF0FF0ACEF0FF0F00E01264D
:101F0000FF0E022203500410D8B489EF0FF08BEFBC
:101F10000FF09BEF0FF001C005F0010E066E052AD1
:101F200094EF0FF0D8900636052E92EF0FF0065082
:101F3000821222EF10F001C005F0010E066E052A94
:101F4000A4EF0FF0D8900636052EA2EF0FF0065042
:101F5000FF0A821622EF10F002BEBAEF0FF0025015
:101F600007E1200E015CD8B0B8EF0FF0BAEF0FF028
:101F7000E8EF0FF0E80E0126FF0E022203500410D6
:101F8000D8B4C5EF0FF0C7EF0FF0D7EF0FF001C0D7
:101F900005F0010E066E052AD0EF0FF0D890063638
:101FA000052ECEEF0FF00650831222EF10F001C085
:101FB00005F0010E066E052AE0EF0FF0D890063608
:101FC000052EDEEF0FF00650FF0A831622EF10F009
:101FD00002BEF6EF0FF0025007E1280E015CD8B008
:101FE000F4EF0FF0F6EF0FF022EF10F0E00E012605
:101FF000FF0E022203500410D8B401EF10F003EFDB
:1020000010F013EF10F001C005F0010E066E052A66
:102010000CEF10F0D8900636052E0AEF10F006509F
:10202000841222EF10F001C005F0010E066E052AA1
:102030001CEF10F0D8900636052E1AEF10F006505F
:10204000FF0A8416120002BE31EF10F0025007E1C1
:10205000080E015CD8B02FEF10F031EF10F05BEFFD
:1020600010F003500410D8B438EF10F03AEF10F02D
:102070004AEF10F001C005F0010E066E052A43EF8D
:1020800010F0D8900636052E41EF10F0065092124F
:1020900049EF11F001C005F0010E066E052A53EF5D
:1020A00010F0D8900636052E51EF10F00650FF0ABA
:1020B000921649EF11F002BE69EF10F0025007E1ED
:1020C000100E015CD8B067EF10F069EF10F097EFD9
:1020D00010F003500410D8B470EF10F072EF10F04D
:1020E00084EF10F001C005F0F80E0526010E066E13
:1020F000052A7DEF10F0D8900636052E7BEF10F004
:102100000650931249EF11F001C005F0F80E0526B4
:10211000010E066E052A8FEF10F0D8900636052EB8
:102120008DEF10F00650FF0A931649EF11F002BE32
:10213000A5EF10F0025007E1180E015CD8B0A3EF34
:1021400010F0A5EF10F0D3EF10F003500410D8B446
:10215000ACEF10F0AEEF10F0C0EF10F001C005F0E2
:10216000F00E0526010E066E052AB9EF10F0D89084
:102170000636052EB7EF10F00650941249EF11F015
:1021800001C005F0F00E0526010E066E052ACBEF04
:1021900010F0D8900636052EC9EF10F00650FF0A51
:1021A000941649EF11F002BEE1EF10F0025007E182
:1021B000200E015CD8B0DFEF10F0E1EF10F00FEF70
:1021C00011F003500410D8B4E8EF10F0EAEF10F06B
:1021D000FCEF10F001C005F0E80E0526010E066EBA
:1021E000052AF5EF10F0D8900636052EF3EF10F023
:1021F0000650951249EF11F001C005F0E80E0526D2
:10220000010E066E052A07EF11F0D8900636052E4E
:1022100005EF11F00650FF0A951649EF11F002BEC6
:102220001DEF11F0025007E1280E015CD8B01BEF42
:1022300011F01DEF11F049EF11F003500410D8B464
:1022400024EF11F026EF11F038EF11F001C005F086
:10225000E00E0526010E066E052A31EF11F0D8902A
:102260000636052E2FEF11F00650961249EF11F0A9
:1022700001C005F0E00E0526010E066E052A43EFAB
:1022800011F0D8900636052E41EF11F00650FF0AE6
:1022900096161200096E0950D8B451EF11F053EFA1
:1022A00011F075EF11F004BE5AEF11F058EF11F074
:1022B00075EF11F001C005F002C006F003C007F091
:1022C00004C008F0051E061E071E081E052A000E83
:1022D00006220722082205C00BF006C00CF007C03A
:1022E0000DF008C00EF07DEF11F001C00BF002C040
:1022F0000CF003C00DF004C00EF0015002100310EA
:102300000410D8A486EF11F088EF11F092EF11F0CD
:10231000000E016E000E026E000E036E000E046EC3
:1023200023EF12F0960E0A6E9CEF11F00A2AD89055
:102330000E320D320C320B32000E0B14056E000EF5
:102340000C14066E000E0D14076EFE0E0E14086EB1
:102350000550061007100810D8A4B1EF11F0B3EF24
:1023600011F096EF11F0C1EF11F00A2A010E0B26C1
:10237000000E0C220D220E22D8900E320D320C329D
:102380000B32000E0B14056E000E0C14066E000EC0
:102390000D14076EFF0E0E14086E05500610071080
:1023A0000810D8A4D6EF11F0D8EF11F0B5EF11F066
:1023B000E0EF11F00A06D8900B360C360D360E36CB
:1023C0000DBEE5EF11F0E7EF11F0EFEF11F0020EA7
:1023D0000A60EDEF11F0EFEF11F0DAEF11F00AB053
:1023E000F4EF11F0F6EF11F0F7EF11F00D9ED89029
:1023F0000A320AC005F0066A076A086A05C008F0D2
:10240000076A066A056A05500B1206500C1207503F
:102410000D1208500E120950D8B411EF12F013EF3C
:1024200012F01BEF12F004BE1AEF12F018EF12F0C8
:102430001BEF12F00E8E0BC001F00CC002F00DC0AD
:1024400003F00EC004F01200D9EC1BF0CCEC1AF033
:102450006BEC1CF0B7EC17F071EC1BF01DEC1DF0F1
:102460003D0E0F6E060E106EF7EC1AF0000E106E99
:10247000010E0F6E000E126E000E116E17EC1CF0A6
:102480001B0E0F6E060E106EF7EC1AF0000E6D6E3E
:10249000000E6C6E000E6F6E000E6E6E5CEC14F033
:1024A000C1EC18F0730AD8A458EF12F05AEF12F0EA
:1024B0005EEF12F0F1EC16F0000E7C6E6E4A6F2AA1
:1024C0006FBE6CEF12F06F5009E10A0E6E5CD8A07F
:1024D0006CEF12F06EEF12F04EEF12F06C4A6D2AB4
:1024E0006DBE7CEF12F06D5009E1460E6C5CD8A019
:1024F0007CEF12F07EEF12F04AEF12F0000E7F6ECA
:1025000086EC16F05CEC03F07E04D8A48AEF12F09F
:102510008CEF12F0B0EF12F0010E0EEC1DF0040E75
:102520007C6095EF12F097EF12F09DEF12F023EC24
:102530000CF0000E7E6EAEEF12F0040E7C18D8A4E4
:10254000A4EF12F0A6EF12F0AAEF12F014EC1AF0BA
:1025500099EF12F0E2EC19F099EF12F05CEC03F055
:1025600034EC1CF07928796E640E7918D8A4BBEF8E
:1025700012F0BDEF12F082EF12F0B3EC0DF0010E8D
:102580007E6E000E796E320E0001B161CAEF12F05C
:10259000CCEF12F0D8EF12F07650D8A4D2EF12F0B0
:1025A000D4EF12F0D8EF12F0010E7B6EDBEF12F0D9
:1025B0007B68010E766E0F0EB161E1EF12F0E3EF72
:1025C00012F082EF12F07604D8A4E9EF12F0EBEFEC
:1025D00012F082EF12F0000E766E82EF12F000EF32
:1025E00000F0000E026E180E016E000E046E000E5A
:1025F000036EFCEC0EF0000E026E190E016E000E62
:10260000046E000E036EFCEC0EF0000E026E1A0E4D
:10261000016E000E046E000E036EFCEC0EF0000E58
:10262000026E1B0E016E000E046E000E036EFCECBB
:102630000EF0000E086E000E076E4AEC1BF089EFDC
:1026400013F0010E7324F66EF76A060EF7220800E7
:10265000F550076E086A4AEC1BF0000E026E180E69
:10266000016E000E046E010E036EFCEC0EF0010E06
:10267000746EA6EF13F0010E7224F66EF76A060E62
:10268000F7220800F550076E086A4AEC1BF0000EAE
:10269000026E190E016E000E046E010E036EFCEC4C
:1026A0000EF0020E746EA6EF13F0010E7124F66E9A
:1026B000F76A060EF7220800F550076E086A4AEC22
:1026C0001BF0000E026E1A0E016E000E046E010E5B
:1026D000036EFCEC0EF0030E746EA6EF13F0010E09
:1026E0007024F66EF76A060EF7220800F550076EA2
:1026F000086A4AEC1BF0000E026E1B0E016E000E03
:10270000046E010E036EFCEC0EF0000E746EA6EF6C
:1027100013F074500A6E0B6A0B50000AD8B493EF92
:1027200013F085EF13F00A50000AD8B421EF13F02C
:10273000010AD8B43BEF13F0030AD8B455EF13F0F5
:10274000010AD8B46FEF13F085EF13F0120002BE48
:10275000B5EF13F0025007E1080E015CD8B0B3EFFB
:1027600013F0B5EF13F0C9EF13F001C003F0010E41
:10277000046E032ABEEF13F0D8900436032EBCEF8C
:1027800013F004508014056E0550016E026A5BEF71
:1027900014F002BED7EF13F0025007E1100E015CF7
:1027A000D8B0D5EF13F0D7EF13F0EDEF13F001C071
:1027B00003F0F80E0326010E046E032AE2EF13F075
:1027C000D8900436032EE0EF13F004508114056E08
:1027D0000550016E026A5BEF14F002BEFBEF13F0CE
:1027E000025007E1180E015CD8B0F9EF13F0FBEFCF
:1027F00013F011EF14F001C003F0F00E0326010EE8
:10280000046E032A06EF14F0D8900436032E04EF6A
:1028100014F004508214056E0550016E026A5BEFDD
:1028200014F002BE1FEF14F0025007E1200E015C0D
:10283000D8B01DEF14F01FEF14F035EF14F001C005
:1028400003F0E80E0326010E046E032A2AEF14F0AB
:10285000D8900436032E28EF14F004508314056E2C
:102860000550016E026A5BEF14F002BE43EF14F0F4
:10287000025007E1280E015CD8B041EF14F043EF9D
:1028800014F059EF14F001C003F0E00E0326010E1E
:10289000046E032A4EEF14F0D8900436032E4CEF4A
:1028A00014F004508414056E0550016E026A5BEF4B
:1028B00014F0016802681200000E00019F6F000E04
:1028C0009E6F000E0E6E000E0D6E0EBE71EF14F0B8
:1028D0000E5009E1050E0D5CD8A071EF14F073EFF6
:1028E00014F075EF14F0D8EF14F00DC00AF0030ED9
:1028F0000A26010E0B6E000E0C6E0A2A83EF14F0EE
:10290000D8900B360C360A2E80EF14F00BC007F06F
:102910000CC008F04AEC1BF0000E026E0A0E016EAD
:10292000A7EC13F001500210D8B499EF14F09BEF0C
:1029300014F0AFEF14F00DC00AF0010E0B6E000E94
:102940000C6E0A2AA7EF14F0D8900B360C360A2E1C
:10295000A4EF14F00B5000019E130C509F13000EB7
:10296000026E090E016EA7EC13F001500210D8B4EC
:10297000BCEF14F0BEEF14F0D4EF14F00DC00AF069
:10298000050E0A26010E0B6E000E0C6E0A2ACCEF05
:1029900014F0D8900B360C360A2EC9EF14F00B50F9
:1029A00000019E130C509F130D4A0E2A65EF14F080
:1029B00000019E519C1907E19F519D19D8A4E3EF96
:1029C00014F0E5EF14F0E8EF14F07506EEEF14F0F4
:1029D000010E756E9EC09CF09FC09DF07550D8A4EE
:1029E000F4EF14F0F6EF14F0FAEF14F09CC0A0F03E
:1029F0009DC0A1F01200000E0A6E08BE04EF15F093
:102A000002EF15F00EEF15F0081E071E061E056CEE
:102A1000000E062207220822010E0A6E04BE15EFE0
:102A200015F013EF15F01FEF15F0041E031E021E24
:102A3000016C000E022203220422010E0A1A000E6B
:102A40000B6E000E0C6E000E0D6E000E0E6E05501D
:102A5000061007100810D8B430EF15F032EF15F05B
:102A600068EF15F0010E096E3CEF15F0D8900536B1
:102A7000063607360836092A08AE41EF15F043EF4F
:102A800015F036EF15F0D8900B360C360D360E36A5
:102A90000550015C0650025807500358085004586E
:102AA000D8A055EF15F057EF15F060EF15F0055071
:102AB000015E0650025A0750035A0850045A0B8010
:102AC000D8900832073206320532092E43EF15F04E
:102AD0000A50D8B46EEF15F070EF15F078EF15F0DE
:102AE0000E1E0D1E0C1E0B6C000E0C220D220E2253
:102AF0000BC001F00CC002F00DC003F00EC004F0DA
:102B000012005B345C34626E6250D8A48AEF15F018
:102B10008CEF15F096EF15F0000E596E000E5A6E00
:102B2000000E5B6E000E5C6E03EF16F059C05DF098
:102B30005AC05EF05BC05FF05CC060F0200EA6EF94
:102B400015F0D89060325F325E325D32E82EA1EF30
:102B500015F05D50616E5B8EFF0E5916FF0E5A1612
:102B6000FF0E5B16000E5C16960E625E62BEBDEF37
:102B700015F0BBEF15F0D3EF15F06250800A970FF8
:102B8000D8B0C5EF15F0C7EF15F0C9EF15F08CEF11
:102B900015F0D8905C325B325A325932623EC9EF3E
:102BA00015F0EBEF15F01F0E6264D9EF15F0DBEFB7
:102BB00015F0E3EF15F08CEF15F0D89059365A3632
:102BC0005B365C3662066250D8A4E9EF15F0EBEF95
:102BD00015F0DDEF15F06150D8B4F1EF15F0F3EF1B
:102BE00015F0FBEF15F05C1E5B1E5A1E596C000EB3
:102BF0005A225B225C2259C059F05AC05AF05BC07D
:102C00005BF05CC05CF01200000E5114596E000EB7
:102C100052145A6E800E53145B6E7F0E54145C6E09
:102C200059505A105B105C10D8A419EF16F01BEF26
:102C300016F023EF16F0000E516E000E526E000ECD
:102C4000536E000E546E000E5514596E000E56143D
:102C50005A6E800E57145B6E7F0E58145C6E59507E
:102C60005A105B105C10D8A438EF16F03AEF16F04B
:102C700042EF16F0000E556E000E566E000E576EA7
:102C8000000E586E54AE47EF16F049EF16F052EFB3
:102C900016F0516C521ED8B0522A531ED8B0532A87
:102CA000800E545658AE57EF16F059EF16F062EFFB
:102CB00016F0556C561ED8B0562A571ED8B0572A53
:102CC000800E5856000E511A000E521A000E531A5A
:102CD000800E541A000E551A000E561A000E571A7E
:102CE000800E581A5550515C5650525857505358F0
:102CF00058505458D8B07FEF16F081EF16F084EF9B
:102D000016F0D89085EF16F0D8801200010E0EEC68
:102D10001DF07F0EFFEC1CF08F0E0F6E060E106E76
:102D2000F7EC1AF0000E106E000E0F6E000E126E11
:102D30000B0E116E17EC1CF0950E0F6E060E106E3A
:102D4000F7EC1AF07E0EFFEC1CF0C00E0EEC1DF03E
:102D5000000E106E010E0F6E000E126E020E116E3E
:102D600017EC1CF0B30E0F6E060E106EF7EC1AF097
:102D7000000E106E010E0F6E000E126E0D0E116E13
:102D800017EC1CF0B50E0F6E060E106EF7EC1AF075
:102D9000000E166E000E156E000E186E000E176EE9
:102DA000174A182A18BEDEEF16F02C0E175C010E1B
:102DB0001858D8A0DEEF16F0E0EF16F0D0EF16F0BE
:102DC000154A162A16BEEEEF16F0F40E155C010E2B
:102DD0001658D8A0EEEF16F0F0EF16F0CCEF16F084
:102DE0001200010E0EEC1DF04CEF17F05CEC03F03E
:102DF0005CEC14F07E04D8A400EF17F002EF17F09B
:102E00004AEF17F0000E7E6E000E106E000E0F6E71
:102E1000000E126E000E116E17EC1CF0C00E0EECC0
:102E20001DF02C0E0F6E060E106EF7EC1AF0800ED1
:102E30000EEC1DF0890E0F6E060E106EF7EC1AF0F8
:102E4000010E7C240F6E106A000E102238EC19F06F
:102E5000570E0F6E060E106EF7EC1AF0AC0E7C24B7
:102E6000D96EDA6A000EDA22AC0E7C24E16EE26AD8
:102E7000000EE222E7507B24DF6EAC0E7C24D96E7C
:102E8000DA6A000EDA22DF50676E6750636E646A9A
:102E900072EC19F05CEC14F07F50D8A452EF17F0EC
:102EA00054EF17F0F6EF16F01200000E066E04BE97
:102EB0005EEF17F05CEF17F064EF17F0036C041E81
:102EC000D8B0042A010E066E02BE6BEF17F069EF50
:102ED00017F071EF17F0016C021ED8B0022A010E34
:102EE000061A000E086E000E076E03500410D8B4C8
:102EF0007CEF17F07EEF17F0A6EF17F0010E056ECE
:102F000086EF17F0D89003360436052A04AE8BEF0F
:102F100017F08DEF17F082EF17F0D89007360836CC
:102F20000350015C04500258D8A099EF17F09BEFB2
:102F300017F0A0EF17F00350015E0450025A07800B
:102F4000D89004320332052E8DEF17F00650D8B416
:102F5000ACEF17F0AEEF17F0B2EF17F0076C081EEA
:102F6000D8B0082A07C001F008C002F01200000E15
:102F7000026E1C0E016E000E046E000E036E23EC3A
:102F800010F0000E026E1D0E016E000E046E000E9B
:102F9000036E23EC10F0F8EC1BF0000E026E0F0E27
:102FA000016E84EC1CF0000E0B6E000E0A6E030E18
:102FB000ECEC1CF0000E026E050E016E84EC1CF0B1
:102FC000000E0B6E000E0A6E030EECEC1CF0000EF1
:102FD000026EA00E016E31EC1DF0000E0B6E000EA5
:102FE0000A6E030EECEC1CF0000E026EA00E016ED9
:102FF00031EC1DF0000E0B6E000E0A6E020EECECB2
:103000001CF0000E026E0A0E016E84EC1CF0280EFD
:103010000EEC1DF00C0E0EEC1DF0010E0EEC1DF072
:10302000120007A016EF18F018EF18F024EF18F0B0
:10303000000E026E180E016E000E046E010E036E7D
:10304000FCEC0EF02EEF18F0000E026E180E016E62
:10305000000E046E000E036EFCEC0EF007A233EFC0
:1030600018F035EF18F041EF18F0000E026E190E4F
:10307000016E000E046E010E036EFCEC0EF04BEFC1
:1030800018F0000E026E190E016E000E046E000E96
:10309000036EFCEC0EF007A450EF18F052EF18F09E
:1030A0005EEF18F0000E026E1A0E016E000E046E36
:1030B000010E036EFCEC0EF068EF18F0000E026ECD
:1030C0001A0E016E000E046E000E036EFCEC0EF084
:1030D0001200000E0E6E0ABE72EF18F070EF18F0BC
:1030E00078EF18F0096C0A1ED8B00A2A010E0E6E8D
:1030F0000CBE7FEF18F07DEF18F083EF18F00B6C2B
:103100000C1ED8B00C2A0B500C10D8B48AEF18F053
:103110008CEF18F0B0EF18F0010E0D6E94EF18F070
:10312000D8900B360C360D2A0CAE99EF18F09BEFA9
:1031300018F090EF18F00B50095C0C500A58D8A00A
:10314000A4EF18F0A6EF18F0AAEF18F00B50095EE4
:103150000C500A5AD8900C320B320D2E9BEF18F0FF
:103160000E50D8B4B6EF18F0B8EF18F0BCEF18F066
:10317000096C0A1ED8B00A2A09C009F00AC00AF070
:103180001200000E056E000E046E04C001F0010E68
:10319000026E000E036E012AD1EF18F0D8900236AD
:1031A0000336012ECEEF18F00001A0510216A151F6
:1031B000031602500310D8B4E0EF18F0E2EF18F055
:1031C000ECEF18F0110E0424F66E060E0520F76ED3
:1031D0000800F550FDEF18F0044A052A05BEFAEF85
:1031E00018F0055009E10A0E045CD8A0FAEF18F0B7
:1031F000FCEF18F0C5EF18F0000E1200000E066E7E
:10320000000E056E03500410D8B409EF19F00BEF4F
:1032100019F033EF19F0010E076E13EF19F0D89083
:1032200003360436072A04AE18EF19F01AEF19F026
:103230000FEF19F0D890053606360350015C0450A4
:103240000258D8A026EF19F028EF19F02DEF19F049
:103250000350015E0450025A0580D89004320332B4
:10326000072E1AEF19F005C001F006C002F0120097
:10327000000E126E010E116E64EF19F011C003F012
:1032800012C004F00FC001F010C002F055EC17F0AE
:1032900001C009F002C00AF0000E0C6E0A0E0B6E9F
:1032A00069EC18F00950300FFFEC1CF011C001F070
:1032B00012C002F0000E046E0A0E036E55EC17F0F9
:1032C00001C011F002C012F012BE71EF19F01250DD
:1032D00006E11104D8B06FEF19F071EF19F03EEF6D
:1032E00019F01200000E666E640E656E9EEF19F006
:1032F00065C003F066C004F063C001F064C002F072
:1033000055EC17F001C009F002C00AF0000E0C6E77
:103310000A0E0B6E69EC18F00950300FFFEC1CF030
:1033200065C001F066C002F0000E046E0A0E036E66
:1033300055EC17F001C065F002C066F066BEABEF59
:1033400019F0665006E16504D8B0A9EF19F0ABEFAB
:1033500019F078EF19F012000A6E010ECB24016EFD
:10336000026A000E02220AC003F0046AC6EC1CF0D6
:1033700001C00BF002C00CF00BC001F00CC002F059
:10338000000E046E190E036EFEEC18F001C00BF077
:1033900002C00CF0FF0E0B16030E0C160BC008F04B
:1033A0000CC009F0D89009320832D890093208329E
:1033B0000850BB6E0BC008F0030E08160838F00B5F
:1033C000BA1212009E0E0F6E060E106EF7EC1AF077
:1033D000A8C063F0646A72EC19F06A0E0F6E060EF4
:1033E000106EF7EC1AF0A9C063F0646A72EC19F081
:1033F000C00E0EEC1DF0A60E0F6E060E106EF7EC52
:103400001AF0AAC063F0646A72EC19F07A0E0F6EBB
:10341000060E106EF7EC1AF0ABC063F0646A72EC43
:1034200019F050EC1CF012009A0E0F6E060E106E82
:10343000F7EC1AF0B0C063F0646A72EC19F0620E37
:103440000F6E060E106EF7EC1AF0B1C063F0646AEE
:1034500072EC19F0C00E0EEC1DF0A20E0F6E060EEF
:10346000106EF7EC1AF0B2C063F0646A72EC19F0F7
:10347000720E0F6E060E106EF7EC1AF0B3C063F00A
:10348000646A72EC19F050EC1CF01200540EF66EE7
:103490003A0EF76E000EF86E00EEA8F010EE0CF08B
:1034A0000900F5CFEEFFE550E150FAE1600EF66E4F
:1034B0003A0EF76E000EF86E0900F5CF7EF00900A7
:1034C000F5CF7FF000EE9CF00C0EEE6AE806FDE111
:1034D00000EE70F00E0EEE6AE806FDE1000EF86EEA
:1034E000000124EF12F00D6E0DC00CF00C3A0F0E1F
:1034F0000C160C50076E086A4AEC1BF0000E026EA8
:103500001D0E016E0AC003F00BC004F0FCEC0EF0BF
:10351000B8EC1BF00DC00CF00F0E0C160C50076E23
:10352000086A4AEC1BF0000E026E1D0E016E0AC006
:1035300003F00BC004F0FCEC0EF0B8EC1BF0120032
:10354000026E0150D8A4A7EF1AF0A9EF1AF0ABEF62
:103550001AF002C073F00104D8A4B1EF1AF0B3EF6F
:103560001AF0B5EF1AF002C072F0020E0118D8A4DA
:10357000BCEF1AF0BEEF1AF0C0EF1AF002C071F003
:10358000030E0118D8A4C7EF1AF0C9EF1AF0CBEF59
:103590001AF002C070F01200000E026E180E016EDA
:1035A000000E046E000E036E23EC10F0000E026E8F
:1035B000190E016E000E046E000E036E23EC10F067
:1035C000000E026E1A0E016E000E046E000E036EE7
:1035D00023EC10F0000E026E1B0E016E000E046E46
:1035E000000E036E23EC10F0F8EC1BF01200000E3E
:1035F000146E000E136E0DEF1BF013500F24116E9E
:1036000014501020126E11C0F6FF12C0F7FF080010
:10361000F550FFEC1CF0134A142A13500F24116EBE
:1036200014501020126E11C0F6FF12C0F7FF0800F0
:10363000F5500009D8A41FEF1BF021EF1BF0FDEFA0
:103640001AF01200C30EC216025007E1030E015C0D
:10365000D8B02DEF1BF02FEF1BF033EF1BF0014420
:10366000E846FC0BC212C282C2B239EF1BF03BEF3C
:103670001BF034EF1BF0C4CF03F0046A0350046E58
:10368000036AC3500326000E042203C001F004C0E5
:1036900002F01200000E026E080E016E000E046EA3
:1036A000000E036EFCEC0EF0000E096E000E026EB2
:1036B0001E0E016E800E0714036E046AFCEC0EF001
:1036C000B1EC1CF0D89007360836092A070E0964B9
:1036D0006CEF1BF06EEF1BF056EF1BF09CEC1CF038
:1036E0001200000E026E000E016E000E046E010E3E
:1036F000036E23EC10F0000E026E010E016E000E40
:10370000046E010E036E23EC10F0000E026E020E2A
:10371000016E000E046E010E036E23EC10F0C280E9
:103720000C0EC16EAA0EC06E1200000E551A000ECD
:10373000561A000E571A800E581A51C028F052C05F
:1037400029F053C02AF054C02BF055C02CF056C0BD
:103750002DF057C02EF058C02FF0E1EC05F028C036
:1037600051F029C052F02AC053F02BC054F012007F
:10377000000E026E1C0E016E000E046E010E036E32
:10378000FCEC0EF0000E026E050E016E31EC1DF029
:10379000000E026E1C0E016E000E046E000E036E13
:1037A000FCEC0EF0000E026E050E016E31EC1DF009
:1037B0001200000E026E180E016E000E046E000E56
:1037C000036E23EC10F0000E026E190E016E000E57
:1037D000046E000E036E23EC10F0000E026E1A0E43
:1037E000016E000E046E000E036E23EC10F012004A
:1037F000000E026E1F0E016E000E046E000E036EB0
:1038000023EC10F0000E026E080E016E000E046E26
:10381000000E036E23EC10F0000E026E1E0E016E01
:10382000000E046E000E036E23EC10F012000F5019
:103830001010D8A41EEF1CF020EF1CF025EF1CF098
:1038400011500F0B800F0EEC1DF00F041010D8A4B8
:103850002CEF1CF02EEF1CF033EF1CF011500F0B6F
:10386000C00F0EEC1DF012007B500001B025B06FB0
:10387000B1517B24B16FB2517B24B26FB3517B2421
:10388000B36F7B50A825A86FA9517B24A96FAA51BB
:103890007B24AA6FAB517B24AB6F000E7B6E1200B2
:1038A0000001A951A8C009F00A6A0926000E0A22DF
:1038B000AA510926000E0A22AB510924016E000EFE
:1038C0000A20026E000E046E040E036E55EC17F013
:1038D0000150776E1200F8EC1BF0000E026E0A0E1B
:1038E000016E000E046E010E036E23EC10F0000E4C
:1038F000026E090E016E000E046E010E036E23ECC3
:1039000010F00C0EC16E1200000E056E000E046E5B
:103910008CEF1CF0044A052A0150045C0550800A13
:10392000036E0250800A0358D8A099EF1CF09BEF59
:103930001CF08AEF1CF01200000E026E1F0E016ECA
:10394000000E046E010E036EFCEC0EF0000E026E13
:103950001F0E016E000E046E000E036EFCEC0EF0E6
:103960001200000E026E080E016E000E046E010EB3
:10397000036EFCEC0EF0000E026E080E016E000EDF
:10398000046E000E036EFCEC0EF0120001500302F8
:10399000F3CF05F0F4CF06F001500402F3500626F1
:1039A00002500302F350062605C001F006C002F0E3
:1039B0001200480E016EE80E026E010E036E000E3C
:1039C000046E0FC005F010C006F0076A086AFBEC31
:1039D00014F00104CB6E12000C6E0CC007F0086AE4
:1039E0004AEC1BF0000E026E1D0E016E0AC003F0C1
:1039F0000BC004F0FCEC0EF0B8EC1BF012000E6EE5
:103A0000000E0B6E010E0A6E0E5073EC1AF0000ED3
:103A1000026E500E016E31EC1DF012000E6E000EA3
:103A20000B6E000E0A6E0E5073EC1AF0000E026E52
:103A3000020E016E84EC1CF012009492030ECA1266
:103A4000CA840C0EBA6E000E106E640E0F6ED9ECA6
:103A50001CF012003C464861202020201E1C142D22
:043A6000010112004E
:020000040020DA
:08000000FFFFFFFFFFFFFFFF00
:020000040030CA
:0E000000FF027100FF8380FF0FC00FE00F4072
:00000001FF
